:020000040800F2
:10000000002800209D1B00082D1900083319000846
:10001000391900083F1900084519000800000000C0
:100020000000000000000000000000004B19000864
:100030005719000800000000631900086F19000834
:10004000E51B0008E51B0008E51B0008E51B000890
:10005000E51B0008E51B0008E51B0008E51B000880
:10006000E51B0008E51B0008E51B0008E51B000870
:10007000E51B0008E51B0008E51B0008E51B000860
:10008000E51B0008E51B0008E51B0008E51B000850
:10009000E51B0008E51B0008E51B0008E51B000840
:1000A000E51B0008E51B0008E51B0008E51B000830
:1000B0007D190008E51B000800000000E51B000892
:1000C000E51B00080000000000000000E51B000820
:1000D00000000000E51B0008E51B00080000000010
:1000E000E51B0008E51B0008E51B000800000000F8
:1000F0000000000000000000000000000000000000
:0C01000000000000000000005FF808F1A3
:10010C0010B5054C237833B9044B13B10448AFF345
:10011C0000800123237010BD6C0000200000000043
:10012C001432000808B5034B1BB103490348AFF365
:10013C00008008BD00000000700000201432000890
:10014C0080B483B000AF7860094A7B6852F82330E2
:10015C00012B06D1064A7B68002142F823100123AB
:10016C0000E0002318460C37BD4680BC704700BF2A
:10017C008800002080B483B000AF7860044A7B68AC
:10018C00012142F8231000BF0C37BD4680BC7047DC
:10019C008800002080B582B000AF00237B6073E044
:1001AC003D4A7B6852F823203C497B6841F8232068
:1001BC003B4A7B6852F8232037497B6841F823205F
:1001CC00384A7B6852F823309BB21946364801F006
:1001DC00EFFF03461946324A7B6842F823102E4A39
:1001EC007B6852F823202E497B6851F823309A42C1
:1001FC0047D1294A7B6852F8232028497B6851F85B
:10020C0023309A423DD1254A7B6852F82320274956
:10021C007B6851F823309A4216D0204A7B6852F8FA
:10022C00232022497B6841F82320204A7B6852F81E
:10023C002330002B25D11E4A7B68C82142F823109D
:10024C007868FFF797FF1CE0194A7B6852F8233057
:10025C005A1E17497B6841F82320154A7B6852F8CF
:10026C002330002B0DD1124A7B68C82142F8231091
:10027C000E4A7B6852F82330002B02D17868FFF7C6
:10028C0079FF7B6801337B607B68022B88DD00BFC4
:10029C0000BF0837BD4680BD0C00002018000020B0
:1002AC000000002030000020000801402400002045
:1002BC003C00002080B500AF594B1B68063B072B58
:1002CC0000F2A28001A252F823F000BF250300081F
:1002DC00610300089D030008D903000815040008F9
:1002EC001504000815040008F90200084C4B0622FE
:1002FC001A604C4B1B684FF47A7202FB03F31846DE
:10030C0001F0B6F9484B1B684FF47A7202FB03F309
:10031C00184601F05FF980E001F008F801F0A8FB45
:10032C00424B1B68012B71D13D4B07221A603D4B90
:10033C001B684FF47A7202FB03F3184601F098F92C
:10034C003B4B1B684FF47A7202FB03F3184601F027
:10035C0041F95BE000F0EAFF01F0AEFB334B1B68A8
:10036C00012B55D12E4B08221A602E4B1B684FF4D3
:10037C007A7202FB03F3184601F07AF92A4B1B68D8
:10038C004FF47A7202FB03F3184601F023F93FE0B5
:10039C0000F0CCFF01F0B4FB244B1B68012B39D1CE
:1003AC001F4B09221A601F4B1B684FF47A7202FB19
:1003BC0003F3184601F05CF91D4B1B684FF47A727D
:1003CC0002FB03F3184601F005F923E000F0AEFF41
:1003DC0001F0BAFB154B1B68012B1DD1104B0622EB
:1003EC001A60104B1B684FF47A7202FB03F3184629
:1003FC0001F03EF90C4B1B684FF47A7202FB03F3CD
:10040C00184601F0E7F807E000BF06E000BF04E083
:10041C0000BF02E000BF00E000BF00BF80BD00BF16
:10042C00480000205000002058000020C800002088
:10043C005400002080B582B000AF7860354B1B684B
:10044C00022B30D0022B5BDC002B02D0012B07D00F
:10045C0056E0304B01221A60FA2001F0EFF854E01C
:10046C00002000F0BFFC2C4B1B682C4A82FB0312B3
:10047C009210DB17D31A184600F05CF97B68274AF8
:10048C0082FB03129210DB17D31A184600F0E0FA25
:10049C00234B1B68012B35D1FA2001F0CFF81D4BF3
:1004AC0002221A602EE0012000F09CFC1A4B1A6804
:1004BC001A4B83FB02139910D317C91A0B469B00D6
:1004CC000B445B00D11A084600F034F97A68134BE0
:1004DC0083FB02139910D317C91A0B469B000B44CC
:1004EC005B00D11A084600F0B3FA0D4B1B68012BC8
:1004FC000AD1FA2001F0A2F8064B01221A6003E09F
:10050C0000BF02E000BF00E000BF00BF0837BD46DF
:10051C0080BD00BF980000204C0000206766666616
:10052C00D800002080B500AF784B1B68013B032B33
:10053C0000F2E08001A252F823F000BF5905000838
:10054C007B050008EF05000861060008FFF7B2FE06
:10055C000020FFF7F5FD0346012B40F0CD806B4BDF
:10056C0002221A604FF4FA7001F04EF8C4E0684BA6
:10057C001B681846FFF75EFF664B1B68012B05D105
:10058C0001F010FA4FF4FA7001F03EF80020FFF77A
:10059C00D7FD0346012B06D15C4B03221A604FF4A6
:1005AC00FA7001F031F80120FFF7CAFD0346012B68
:1005BC000BD1574B1B680133554A1360544B1B68C6
:1005CC00632B02DD524B01221A600220FFF7B8FDAB
:1005DC000346012B40F092804D4B1B684E4A136032
:1005EC008CE04E4B1B681846FFF724FF494B1B68E9
:1005FC00012B05D101F01AFA4FF4FA7001F004F84E
:10060C000020FFF79DFD0346012B06D13F4B042232
:10061C001A604FF4FA7001F011F80120FFF790FD09
:10062C000346012B0BD13D4B1B6801333B4A136036
:10063C003A4B1B68632B02DD384B01221A600220F7
:10064C00FFF77EFD0346012B5AD1344B1B68344A0D
:10065C00136055E0334B1B681846FFF7EBFE2D4B30
:10066C001B68012B05D101F0BFF94FF4FA7000F0B3
:10067C00CBFF0020FFF764FD0346012B02D1234B77
:10068C0001221A600120FFF75BFD0346012B0BD101
:10069C00244B1B680133234A1360224B1B68632BCA
:1006AC0002DD204B01221A600220FFF749FD0346B0
:1006BC00012B27D11B4B1B681B4A1360194B1A6863
:1006CC00164B1B681344124A1360114B1B68124AD9
:1006DC001360124B1B68124A1360124B1B68124AB0
:1006EC00136000F0C3FB114B0D221A60104B00225B
:1006FC001A6007E000BF06E000BF04E000BF02E0A4
:10070C0000BF00E000BF00BF80BD00BF4C00002058
:10071C009C000020D000002050000020A0000020F1
:10072C0054000020A40000205800002048000020A5
:10073C009400002080B582B000AF78607B68092BF4
:10074C0000F2808101A252F823F000BF810700085B
:10075C00C90700081108000859080008A10800087A
:10076C00E90800083109000879090008C1090008E6
:10077C00090A000800220121B44801F030FD0022D2
:10078C000221B24801F02BFD00220421AF4801F0F8
:10079C0026FD00220821AD4801F021FD0022102188
:1007AC00AA4801F01CFD00222021A84801F017FDE9
:1007BC0001224021A54801F012FD43E10122012153
:1007CC00A24801F00CFD00220221A04801F007FD17
:1007DC00002204219D4801F002FD012208219B48C2
:1007EC0001F0FDFC01221021984801F0F8FC0122D7
:1007FC002021964801F0F3FC01224021934801F09E
:10080C00EEFC1FE100220121904801F0E8FC0022DF
:10081C0002218E4801F0E3FC012204218B4801F0F7
:10082C00DEFC00220821894801F0D9FC00221021AD
:10083C00864801F0D4FC01222021844801F0CFFC31
:10084C0000224021814801F0CAFCFBE0002201217A
:10085C007E4801F0C4FC002202217C4801F0BFFC60
:10086C0000220421794801F0BAFC002208217748C3
:10087C0001F0B5FC01221021744801F0B0FC0122FA
:10088C002021724801F0ABFC002240216F4801F09E
:10089C00A6FCD7E0012201216C4801F0A0FC00224B
:1008AC0002216A4801F09BFC00220421674801F0F8
:1008BC0096FC01220821654801F091FC01221021CF
:1008CC00624801F08CFC00222021604801F087FC7A
:1008DC00002240215D4801F082FCB3E0002201219E
:1008EC005A4801F07CFC01220221584801F077FCA7
:1008FC0000220421554801F072FC002208215348C3
:10090C0001F06DFC01221021504801F068FC00221E
:10091C0020214E4801F063FC002240214B4801F09D
:10092C005EFC8FE000220121484801F058FC0122B6
:10093C000221464801F053FC00220421434801F0F7
:10094C004EFC00221021414801F049FC00220821F4
:10095C003E4801F044FC002220213C4801F03FFCC1
:10096C0000224021394801F03AFC6BE000220121C1
:10097C00364801F034FC00220221344801F02FFCEF
:10098C0000220421314801F02AFC012208212F48C1
:10099C0001F025FC012210212C4801F020FC012241
:1009AC0020212A4801F01BFC01224021274801F09C
:1009BC0016FC47E000220121244801F010FC002223
:1009CC000221224801F00BFC002204211F4801F0F7
:1009DC0006FC002208211D4801F001FC0022102118
:1009EC001A4801F0FCFB00222021184801F0F7FB0B
:1009FC0000224021154801F0F2FB23E000220121E6
:100A0C00124801F0ECFB00220221104801F0E7FB38
:100A1C00002204210D4801F0E2FB002208210B48C2
:100A2C0001F0DDFB01221021084801F0D8FB002267
:100A3C002021064801F0D3FB00224021034801F09D
:100A4C00CEFB00BF00BF0837BD4680BD000C014087
:100A5C0080B582B000AF78607B68092B00F2BC8156
:100A6C0001A252F823F000BF9D0A0008F10A000809
:100A7C00450B0008990B0008ED0B0008410C000811
:100A8C00950C0008E90C00083D0D0008910D0008BC
:100A9C0000228021D24801F0A2FB00224FF4807189
:100AAC00CF4801F09CFB00224FF40071CC4801F0C0
:100ABC0096FB00224FF48061C94801F090FB0022A4
:100ACC004FF40061C64801F08AFB00224FF48051BC
:100ADC00C34801F084FB01224FF40051C04801F0DF
:100AEC007EFB79E101228021BD4801F078FB0022D8
:100AFC004FF48071BA4801F072FB00224FF4007180
:100B0C00B74801F06CFB01224FF48061B44801F04E
:100B1C0066FB01224FF40061B14801F060FB012239
:100B2C004FF48051AE4801F05AFB01224FF40051B2
:100B3C00AB4801F054FB4FE100228021A84801F0A2
:100B4C004EFB00224FF48071A54801F048FB0122B6
:100B5C004FF40071A24801F042FB00224FF4806177
:100B6C009F4801F03CFB00224FF400619C4801F0CF
:100B7C0036FB01224FF48051994801F030FB0022E2
:100B8C004FF40051964801F02AFB25E10022802108
:100B9C00934801F024FB00224FF48071904801F03F
:100BAC001EFB00224FF400718D4801F018FB00224F
:100BBC004FF480618A4801F012FB01224FF400616E
:100BCC00874801F00CFB01224FF48051844801F05E
:100BDC0006FB00224FF40051814801F000FBFBE0C2
:100BEC00012280217E4801F0FAFA00224FF4807134
:100BFC007B4801F0F4FA00224FF40071784801F0C0
:100C0C00EEFA01224FF48061754801F0E8FA0122F6
:100C1C004FF40061724801F0E2FA00224FF4805167
:100C2C006F4801F0DCFA00224FF400516C4801F0DF
:100C3C00D6FAD1E000228021694801F0D0FA0122D5
:100C4C004FF48071664801F0CAFA00224FF400712B
:100C5C00634801F0C4FA00224FF48061604801F04F
:100C6C00BEFA01224FF400615D4801F0B8FA00228F
:100C7C004FF480515A4801F0B2FA00224FF400515F
:100C8C00574801F0ACFAA7E000228021544801F04B
:100C9C00A6FA01224FF48071514801F0A0FA00220B
:100CAC004FF400714E4801F09AFA00224FF4806123
:100CBC004B4801F094FA00224FF40061484801F0CF
:100CCC008EFA00224FF48051454801F088FA002238
:100CDC004FF40051424801F082FA7DE0002280215D
:100CEC003F4801F07CFA00224FF480713C4801F03F
:100CFC0076FA00224FF40071394801F070FA0122A3
:100D0C004FF48061364801F06AFA01224FF4006119
:100D1C00334801F064FA01224FF48051304801F05D
:100D2C005EFA01224FF400512D4801F058FA53E0BD
:100D3C00002280212A4801F052FA00224FF48071DF
:100D4C00274801F04CFA00224FF40071244801F0BE
:100D5C0046FA00224FF48061214801F040FA00224B
:100D6C004FF400611E4801F03AFA00224FF4805112
:100D7C001B4801F034FA00224FF40051184801F0DE
:100D8C002EFA29E000228021154801F028FA0022D1
:100D9C004FF48071124801F022FA00224FF40071D6
:100DAC000F4801F01CFA00224FF480610C4801F04E
:100DBC0016FA01224FF40061094801F010FA0022E2
:100DCC004FF48051064801F00AFA00224FF400510A
:100DDC00034801F004FA00BF00BF0837BD4680BDD0
:100DEC00000C014080B582B000AF78607B68002BAE
:100DFC0003D07B68012B19D031E000224FF48071B5
:100E0C00194801F0ECF901224FF40071164801F079
:100E1C00E6F900224FF48061134801F0E0F9012259
:100E2C004FF40061104801F0DAF918E001224FF498
:100E3C0080710D4801F0D3F900224FF400710A487B
:100E4C0001F0CDF901224FF48061074801F0C7F998
:100E5C0000224FF40061044801F0C1F900BF00BF4B
:100E6C000837BD4680BD00BF0008014080B400AF0C
:100E7C00274B1B68274A82FB03129210DB17D31AED
:100E8C00254A1360224B1968224B83FB01239A10CD
:100E9C00CB17D21A13469B0013445B00CA1A1E4B85
:100EAC005A601E4B1B681B4A82FB03129210DB1705
:100EBC00D31A194A9360194B1968164B83FB0123FB
:100ECC009A10CB17D21A13469B0013445B00CA1A14
:100EDC00114BDA60124B1B680E4A82FB0312921004
:100EEC00DB17D31A0C4A13610D4B1968094B83FBA2
:100EFC0001239A10CB17D21A13469B0013445B00A4
:100F0C00CA1A054B5A6100BFBD4680BC704700BF72
:100F1C005000002067666666A8000020580000207C
:100F2C005400002080B483B000AF00237B6081E0CC
:100F3C007B680133444A52F82330002B14DA424ABE
:100F4C007B6852F82330002B0EDD7B6801333E4A60
:100F5C00092142F823103C4A7B6852F823305A1E70
:100F6C0039497B6841F82320374A7B6852F8233093
:100F7C00002B5CD17B680133334A52F82330002BB1
:100F8C0055D17B68002B19D1304B1B68304A82FB42
:100F9C0003129210DB17D31A2B4A13602B4B1968D0
:100FAC002B4B83FB01239A10CB17D21A13469B00B1
:100FBC0013445B00CA1A244B5A6038E07B68022B3E
:100FCC0019D1244B1B68224A82FB03129210DB17A7
:100FDC00D31A1D4A93601F4B19681D4B83FB0123C9
:100FEC009A10CB17D21A13469B0013445B00CA1AF3
:100FFC00154BDA601BE07B68042B18D1164B1B6871
:10100C00134A82FB03129210DB17D31A0E4A136198
:10101C00114B19680E4B83FB01239A10CB17D21A74
:10102C0013469B0013445B00CA1A074B5A617B683A
:10103C0002337B607B68052B7FF77AAF00BF00BF64
:10104C000C37BD4680BC7047A80000205000002023
:10105C0067666666580000205400002080B500AF1B
:10106C00284B1B68022B29D0022B49DC002B02D009
:10107C00012B0AD044E0FFF755FF4FF4FA7000F053
:10108C008FFA204B01221A603AE00020FFF7AAFEEB
:10109C001D4B1B691846FFF74DFB1B4B1B68184675
:1010AC00FFF7D6FC194B1B68012B26D1154B0222DE
:1010BC001A604FF4FA7000F073FA1EE00120FFF78B
:1010CC0091FE114B5B691846FFF734FB0E4B5B68C6
:1010DC001846FFF7BDFC0D4B1B68012B0FD10A4BBB
:1010EC005B68013B084A5360074B5B69013B064A4E
:1010FC005361044B00221A6001E000BF00E000BF06
:10110C0000BF80BD94000020A8000020C00000207B
:10111C0080B500AF284B1B68022B29D0022B49DC71
:10112C00002B02D0012B0AD044E0FFF7FBFE4FF45A
:10113C00FA7000F035FA204B01221A603AE00020D8
:10114C00FFF750FE1D4B9B681846FFF7F3FA1B4B3D
:10115C001B681846FFF77CFC194B1B68012B26D12A
:10116C00154B02221A604FF4FA7000F019FA1EE0C7
:10117C000120FFF737FE114BDB681846FFF7DAFA50
:10118C000E4B5B681846FFF763FC0D4B1B68012B7D
:10119C000FD10A4B5B68013B084A5360074BDB6875
:1011AC00013B064AD360044B00221A6001E000BFE9
:1011BC0000E000BF00BF80BD94000020A80000200C
:1011CC00C000002080B500AF284B1B68022B29D033
:1011DC00022B49DC002B02D0012B0AD044E0FFF794
:1011EC00A1FE4FF4FA7000F0DBF9204B01221A60DB
:1011FC003AE00020FFF7F6FD1D4B1B681846FFF781
:10120C0099FA1B4B1B691846FFF722FC194B1B68FC
:10121C00012B26D1154B02221A604FF4FA7000F004
:10122C00BFF91EE00120FFF7DDFD114B5B6818468E
:10123C00FFF780FA0E4B5B691846FFF709FC0D4B64
:10124C001B68012B0FD10A4B5B68013B084A5360AA
:10125C00074B5B69013B064A5361044B00221A6041
:10126C0001E000BF00E000BF00BF80BD9400002083
:10127C00A8000020C000002080B500AF284B1B68E0
:10128C00022B29D0022B49DC002B02D0012B0AD0D7
:10129C0044E0FFF747FE4FF4FA7000F081F9204B61
:1012AC0001221A603AE00020FFF79CFD1D4B1B68E1
:1012BC001846FFF73FFA1B4B9B681846FFF7C8FB15
:1012CC00194B1B68012B26D1154B02221A604FF4C7
:1012DC00FA7000F065F91EE00120FFF783FD114B59
:1012EC005B681846FFF726FA0E4BDB681846FFF7CB
:1012FC00AFFB0D4B1B68012B0FD10A4B5B68013BFD
:10130C00084A5360074BDB68013B064AD360044B29
:10131C0000221A6001E000BF00E000BF00BF80BDEA
:10132C0094000020A8000020C000002080B500AF71
:10133C000F4B1B68063B032B16D801A252F823F067
:10134C005D13000863130008691300086F1300088D
:10135C00FFF792FF09E0FFF735FF06E0FFF7D8FE35
:10136C0003E0FFF77BFE00E000BF00BF80BD00BFC5
:10137C004800002080B500AF00F030FC00F01EF8F3
:10138C0000F0A4F800F056F80A4801F085FB4FF481
:10139C007A7000F087F9FFF769FD074B1B68012B8A
:1013AC0005D100F0F5FA4FF47A7000F07BF9FFF7F5
:1013BC00B9F8F2E7100100200801002080B590B0C8
:1013CC0000AF07F1180328220021184601F014FF82
:1013DC003B1D00221A605A609A60DA601A6102237F
:1013EC00BB610123BB621023FB6200237B6307F10B
:1013FC001803184600F024FF0346002B01D000F020
:10140C00C9F80F237B600023BB600023FB60002323
:10141C003B6100237B613B1D0021184601F090F9D4
:10142C000346002B01D000F0B5F800BF4037BD4695
:10143C0080BD000080B586B000AF07F10803002224
:10144C001A605A609A60DA603B4600221A605A6051
:10145C001D4B4FF080421A601B4B41F63F725A6095
:10146C00194B00229A60184B0922DA60164B0022A5
:10147C001A61154B00229A61134801F0BDFA03461C
:10148C00002B01D000F086F84FF48053BB6007F1BD
:10149C00080319460C4801F03BFC0346002B01D015
:1014AC0000F078F800233B6000237B603B46194634
:1014BC00054801F013FE0346002B01D000F06AF83A
:1014CC0000BF1837BD4680BD1001002080B586B026
:1014DC0000AF07F1080300221A605A609A60DA60C4
:1014EC00234B9B69224A43F004039361204B9B6975
:1014FC0003F004037B607B681D4B9B691C4A43F023
:10150C00080393611A4B9B6903F008033B603B682B
:10151C0040F6FE73BB600123FB6000233B6102239A
:10152C007B6107F108031946124800F0C7FC4FF421
:10153C006043BB600023FB6001233B6107F10803A0
:10154C0019460C4800F0BAFC43F6FF73BB6001234C
:10155C00FB6000233B6102237B6107F10803194602
:10156C00054800F0ABFC00BF1837BD4680BD00BF7E
:10157C000010024000080140000C014080B582B010
:10158C0000AF786000F0A8F8FEF704FE00BF083743
:10159C00BD4680BD80B400AF72B600BFFEE7000050
:1015AC0080B483B000AF7860074B00221A60074B01
:1015BC001B687A6892FBF3F3054A136000BF0C3783
:1015CC00BD4680BC704700BFC00000205C000020FE
:1015DC00C400002080B483B000AF7860074B0022B9
:1015EC001A60074B1B687A6892FBF3F3054A136089
:1015FC0000BF0C37BD4680BC704700BFC800002040
:10160C005C000020CC00002080B483B000AF786078
:10161C00074B00221A60074B1B687A6892FBF3F3A6
:10162C00054A136000BF0C37BD4680BC704700BF35
:10163C00D00000205C000020D400002080B483B0D7
:10164C0000AF7860074B00221A60074B1B687A6862
:10165C0092FBF3F3054A136000BF0C37BD4680BC08
:10166C00704700BFD80000205C000020DC00002088
:10167C0080B483B000AF7860074B00221A60074B30
:10168C001B687A6892FBF3F3054A136000BF0C37B2
:10169C00BD4680BC704700BFE80000205C00002005
:1016AC00EC00002080B483B000AF7860074B0022C0
:1016BC001A60074B1B687A6892FBF3F3054A1360B8
:1016CC0000BF0C37BD4680BC704700BF080100202E
:1016DC005C0000200C01002080B400AF514B1B6853
:1016EC00002B0BDD4F4B1B68013B4E4A13604D4BDF
:1016FC001B68002B02DC4C4B01221A604B4B1B6805
:10170C00002B0BDD494B1B68013B484A1360474BD0
:10171C001B68002B02DC464B01221A60454B1B68F0
:10172C00002B0BDD434B1B68013B424A1360414BC2
:10173C001B68002B02DC404B01221A603F4B1B68DC
:10174C00002B0BDD3D4B1B68013B3C4A13603B4BB4
:10175C001B68002B02DC3A4B01221A60394B1B68C8
:10176C00002B0BDD374B1B68013B364A1360354BA6
:10177C001B68002B02DC344B01221A60334B1B68B4
:10178C00002B0BDD314B1B68013B304A13602F4B98
:10179C001B68002B02DC2E4B01221A602D4B1B68A0
:1017AC00002B0BDD2B4B1B68013B2A4A1360294B8A
:1017BC001B68002B02DC284B01221A60274B1B688C
:1017CC00002B0BDD254B1B68013B244A1360234B7C
:1017DC001B68002B02DC224B01221A60214B1B6878
:1017EC00002B0BDD1F4B1B68013B1E4A13601D4B6E
:1017FC001B68002B02DC1C4B01221A601B4B1B6864
:10180C00002B0BDD194B1B68013B184A1360174B5F
:10181C001B68002B02DC164B01221A6000BFBD4670
:10182C0080BC7047C4000020C0000020CC00002009
:10183C00C8000020D4000020D0000020DC000020D4
:10184C00D8000020E4000020E0000020EC00002084
:10185C00E8000020F4000020F0000020FC00002034
:10186C00F800002004010020000100200C010020E1
:10187C000801002080B485B000AF154B9B69144A59
:10188C0043F001039361124B9B6903F00103BB60AE
:10189C00BB680F4BDB690E4A43F08053D3610C4B92
:1018AC00DB6903F080537B607B680A4B5B68FB60F1
:1018BC00FB6823F0E063FB60FB6843F08063FB6034
:1018CC00044AFB68536000BF1437BD4680BC7047A8
:1018DC00001002400000014080B584B000AF786079
:1018EC007B681B68B3F1804F13D10C4BDB690B4A3F
:1018FC0043F00103D361094BDB6903F00103FB6087
:10190C00FB68002200211C2000F0A1FA1C2000F032
:10191C00BAFA00BF1037BD4680BD00BF00100240B0
:10192C0080B400AFFEE780B400AFFEE780B400AF38
:10193C00FEE780B400AFFEE780B400AFFEE780B4F2
:10194C0000AF00BFBD4680BC704780B400AF00BF85
:10195C00BD4680BC704780B400AF00BFBD4680BCA4
:10196C00704780B500AF00F07FF900BF80BD00006C
:10197C0080B500AF024801F0DBF800BF80BD00BFAE
:10198C001001002080B400AF00BFBD4680BC704782
:10199C0080B500AF2021024800F039FC00BF80BDAB
:1019AC000008014080B500AF002240210D4800F036
:1019BC0016FC002280210B4800F011FC00220421AF
:1019CC00084800F00CFC00220821064800F007FC37
:1019DC000221044800F01BFC1021024800F017FC07
:1019EC0000BF80BD0008014080B500AF002240213F
:1019FC000D4800F0F4FB002210210B4800F0EFFB27
:101A0C0000220421084800F0EAFB002202210648CB
:101A1C0000F0E5FB0821044800F0F9FB80210248A6
:101A2C0000F0F5FB00BF80BD0008014080B500AFA1
:101A3C00002280210D4800F0D2FB002210210B481F
:101A4C0000F0CDFB00220821084800F0C8FB002262
:101A5C000221064800F0C3FB0421044800F0D7FB28
:101A6C004021024800F0D3FB00BF80BD00080140BC
:101A7C0080B500AF012202210E4800F0B0FB00221D
:101A8C0004210C4800F0ABFB00220821094800F0AF
:101A9C00A6FB00221021074800F0A1FB00224021E8
:101AAC00044800F09CFB01228021024800F097FBC7
:101ABC0000BF80BD0008014080B500AF01220221AB
:101ACC000E4800F08CFB002204210C4800F087FB30
:101ADC0000220821094800F082FB0022102107484F
:101AEC0000F07DFB01224021044800F078FB00222D
:101AFC008021024800F073FB00BF80BD000801404C
:101B0C0080B500AF002202210E4800F068FB0022D5
:101B1C0004210C4800F063FB01220821094800F065
:101B2C005EFB01221021074800F059FB00224021E6
:101B3C00044800F054FB00228021024800F04FFBC7
:101B4C0000BF80BD0008014080B500AF002202211B
:101B5C000E4800F044FB012204210C4800F03FFB2E
:101B6C0000220821094800F03AFB01221021074805
:101B7C0000F035FB00224021044800F030FB00222D
:101B8C008021024800F02BFB00BF80BD0008014003
:101B9C00FFF7F8FE0B480C490C4A002302E0D4581E
:101BAC00C4500433C4188C42F9D3094A094C00239D
:101BBC0001E013600432A242FBD301F0F9FAFFF703
:101BCC00D9FB7047000000206C0000205832000840
:101BDC006C0000205C010020FEE7000080B500AF27
:101BEC00084B1B68074A43F010031360032000F0F6
:101BFC0023F90F2000F008F8FFF73CFE00231846ED
:101C0C0080BD00BF0020024080B582B000AF78607C
:101C1C00124B1A68124B1B7819464FF47A73B3FBAC
:101C2C00F1F3B2FBF3F3184600F03BF90346002B3B
:101C3C0001D001230EE07B680F2B0AD800227968B3
:101C4C004FF0FF3000F003F9064A7B681360002365
:101C5C0000E0012318460837BD4680BD6000002017
:101C6C00680000206400002080B400AF054B1B7896
:101C7C001A46054B1B681344034A136000BFBD464C
:101C8C0080BC7047680000205801002080B400AF71
:101C9C00024B1B681846BD4680BC7047580100209B
:101CAC0080B485B000AF78607B6803F00703FB60FD
:101CBC000C4BDB68BB60BA684FF6FF031340BB608C
:101CCC00FB681A02BB68134343F0BF6343F4003351
:101CDC00BB60044ABB68D36000BF1437BD4680BCF0
:101CEC00704700BF00ED00E080B400AF044BDB6830
:101CFC001B0A03F007031846BD4680BC704700BFA3
:101D0C0000ED00E080B483B000AF0346FB7197F99F
:101D1C000730002B0BDBFB7903F01F02064997F908
:101D2C0007305B09012000FA02F241F8232000BFC2
:101D3C000C37BD4680BC704700E100E080B483B036
:101D4C0000AF03463960FB7197F90730002B0ADBB3
:101D5C003B68DAB20C4997F907301201D2B20B4446
:101D6C0083F800230AE03B68DAB20849FB7903F0F8
:101D7C000F03043B1201D2B20B441A7600BF0C378E
:101D8C00BD4680BC704700BF00E100E000ED00E004
:101D9C0080B489B000AFF860B9607A60FB6803F07A
:101DAC000703FB61FB69C3F10703042B28BF042362
:101DBC00BB61FB690433062B02D9FB69033B00E0D2
:101DCC0000237B614FF0FF32BB6902FA03F3DA4365
:101DDC00BB681A407B699A404FF0FF317B6901FA6E
:101DEC0003F3D9437B680B40134318462437BD4695
:101DFC0080BC704780B582B000AF78607B68013BD7
:101E0C00B3F1807F01D301230FE00A4A7B68013BC9
:101E1C0053600F214FF0FF30FFF790FF054B00226E
:101E2C009A60044B07221A60002318460837BD46F7
:101E3C0080BD00BF10E000E080B582B000AF7860DC
:101E4C007868FFF72DFF00BF0837BD4680BD80B511
:101E5C0086B000AF0346B9607A60FB7300237B61E8
:101E6C00FFF742FF78617A68B9687869FFF790FFED
:101E7C00024697F90F3011461846FFF75FFF00BF77
:101E8C001837BD4680BD80B582B000AF0346FB71EC
:101E9C0097F907301846FFF735FF00BF0837BD46E6
:101EAC0080BD80B582B000AF78607868FFF7A2FF84
:101EBC00034618460837BD4680BD000080B48BB081
:101ECC0000AF7860396000237B6200233B6248E1FD
:101EDC0001227B6A02FA03F3FB613B681B68FA6917
:101EEC001340BB61BA69FB699A4240F037813B6889
:101EFC005B68A34A93425ED0A14A934275D8A14A2B
:101F0C00934258D09F4A93426FD89F4A934252D0E3
:101F1C009D4A934269D89D4A93424CD09B4A934226
:101F2C0063D89B4A934246D0994A93425DD8122B70
:101F3C002AD8122B59D801A252F823F0C31F00083B
:101F4C009D1F0008AF1F0008F11F0008F71F0008B5
:101F5C00F71F0008F71F0008F71F0008F71F0008FD
:101F6C00F71F0008F71F0008F71F0008F71F0008ED
:101F7C00F71F0008F71F0008F71F0008F71F0008DD
:101F8C00A51F0008B91F0008824A934213D02CE009
:101F9C003B68DB683B6229E03B68DB6804333B62EF
:101FAC0024E03B68DB6808333B621FE03B68DB687E
:101FBC000C333B621AE03B689B68002B02D1042374
:101FCC003B6213E03B689B68012B05D108233B6205
:101FDC007B68FA691A6109E008233B627B68FA693D
:101FEC005A6103E000233B6200E000BFBB69FF2B9A
:101FFC0001D87B6801E07B6804337B61BB69FF2BF4
:10200C0002D87B6A9B0002E07B6A083B9B003B6129
:10201C007B691A680F213B6901FA03F3DB431A4011
:10202C00396A3B6901FA03F31A437B691A603B680E
:10203C005B6803F08053002B00F09080564B9B693B
:10204C00554A43F001039361534B9B6903F0010321
:10205C00BB60BB68514A7B6A9B08023352F8233041
:10206C00FB607B6A03F003039B000F2202FA03F36D
:10207C00DB43FA681340FB607B68494A93420DD0FE
:10208C007B68484A934207D07B68474A934201D108
:10209C00022304E0032302E0012300E000237A6A18
:1020AC0002F0030292009340FA681343FB603B4931
:1020BC007B6A9B080233FA6841F823203B685B6813
:1020CC0003F48013002B06D0384B9A683749BB6950
:1020DC0013438B6006E0354B9A68BB69DB4333498D
:1020EC0013408B603B685B6803F40013002B06D035
:1020FC002E4BDA682D49BB691343CB6006E02B4BA2
:10210C00DA68BB69DB4329491340CB603B685B68E9
:10211C0003F40033002B06D0244B5A682349BB69C7
:10212C0013434B6006E0214B5A68BB69DB431F49E4
:10213C0013404B603B685B6803F48033002B06D084
:10214C001A4B1A681949BB6913430B6006E0174B0D
:10215C001A68BB69DB43154913400B607B6A01337A
:10216C007B623B681A687B6A22FA03F3002B7FF4CC
:10217C00AFAE00BF00BF2C37BD4680BC704700BF60
:10218C00000032100000311000002210000021105D
:10219C00000012100000111000100240000001405D
:1021AC0000080140000C01400010014000040140F7
:1021BC0080B485B000AF78600B467B807B689A68F2
:1021CC007B881340002B02D00123FB7301E000231A
:1021DC00FB73FB7B18461437BD4680BC704780B43C
:1021EC0083B000AF78600B467B8013467B707B78A6
:1021FC00002B03D07A887B681A6103E07B881A0471
:10220C007B681A6100BF0C37BD4680BC704780B438
:10221C0085B000AF78600B467B807B68DB68FB6029
:10222C007A88FB6813401A04FB68D9437B880B40FF
:10223C001A437B681A6100BF1437BD4680BC7047D7
:10224C0080B586B000AF78607B68002B01D101238C
:10225C006CE27B681B6803F00103002B00F08780A5
:10226C00924B5B6803F00C03042B0CD08F4B5B6818
:10227C0003F00C03082B12D18C4B5B6803F48033F6
:10228C00B3F5803F0BD1894B1B6803F40033002B53
:10229C006CD07B685B68002B68D1012346E27B68BD
:1022AC005B68B3F5803F06D1804B1B687F4A43F4D3
:1022BC00803313602EE07B685B68002B0CD17B4B6A
:1022CC001B687A4A23F480331360784B1B68774A77
:1022DC0023F4802313601DE07B685B68B3F5A02FAB
:1022EC000CD1724B1B68714A43F4802313606F4B03
:1022FC001B686E4A43F4803313600BE06B4B1B6816
:10230C006A4A23F480331360684B1B68674A23F4D2
:10231C00802313607B685B68002B13D0FFF7B6FC3F
:10232C00386108E0FFF7B2FC02463B69D31A642B14
:10233C0001D90323FAE15D4B1B6803F40033002B36
:10234C00F0D014E0FFF7A2FC386108E0FFF79EFC28
:10235C0002463B69D31A642B01D90323E6E1534BA4
:10236C001B6803F40033002BF0D100E000BF7B6846
:10237C001B6803F00203002B63D04C4B5B6803F02B
:10238C000C03002B0BD0494B5B6803F00C03082BA0
:10239C001CD1464B5B6803F48033002B16D1434BA6
:1023AC001B6803F00203002B05D07B681B69012B13
:1023BC0001D00123BAE13D4B1B6823F0F8027B6886
:1023CC005B69DB00394913430B603AE07B681B699E
:1023DC00002B20D0364B01221A60FFF757FC3861D6
:1023EC0008E0FFF753FC02463B69D31A022B01D9D4
:1023FC0003239BE12D4B1B6803F00203002BF0D051
:10240C002A4B1B6823F0F8027B685B69DB002749C9
:10241C0013430B6015E0264B00221A60FFF736FCC5
:10242C00386108E0FFF732FC02463B69D31A022BF5
:10243C0001D903237AE11D4B1B6803F00203002B27
:10244C00F0D17B681B6803F00803002B3AD07B6843
:10245C009B69002B19D0174B01221A60FFF716FC51
:10246C00386108E0FFF712FC02463B69D31A022BD5
:10247C0001D903235AE10D4B5B6A03F00203002BD5
:10248C00F0D0012000F09AFA1CE00A4B00221A60EE
:10249C00FFF7FCFB38610FE0FFF7F8FB02463B69E6
:1024AC00D31A022B08D9032340E100BF00100240CD
:1024BC0000004242800442429E4B5B6A03F00203DE
:1024CC00002BE9D17B681B6803F00403002B00F0A0
:1024DC00A6800023FB75974BDB6903F08053002B20
:1024EC000DD1944BDB69934A43F08053D361914BEC
:1024FC00DB6903F08053BB60BB680123FB758E4B1B
:10250C001B6803F48073002B18D18B4B1B688A4A11
:10251C0043F480731360FFF7B9FB386108E0FFF7F1
:10252C00B5FB02463B69D31A642B01D90323FDE0AA
:10253C00814B1B6803F48073002BF0D07B68DB6845
:10254C00012B06D17B4B1B6A7A4A43F001031362C1
:10255C002DE07B68DB68002B0CD1764B1B6A754A2F
:10256C0023F001031362734B1B6A724A23F00403BA
:10257C0013621CE07B68DB68052B0CD16D4B1B6A6E
:10258C006C4A43F0040313626A4B1B6A694A43F0BA
:10259C00010313620BE0674B1B6A664A23F00103CD
:1025AC001362644B1B6A634A23F0040313627B6857
:1025BC00DB68002B15D0FFF769FB38610AE0FFF7E9
:1025CC0065FB02463B69D31A41F28832934201D92A
:1025DC000323ABE0574B1B6A03F00203002BEED036
:1025EC0014E0FFF753FB38610AE0FFF74FFB02469C
:1025FC003B69D31A41F28832934201D9032395E007
:10260C004C4B1B6A03F00203002BEED1FB7D012B1C
:10261C0005D1484BDB69474A23F08053D3617B6873
:10262C00DB69002B00F08180424B5B6803F00C03EC
:10263C00082B61D07B68DB69022B46D13F4B002213
:10264C001A60FFF723FB386108E0FFF71FFB024617
:10265C003B69D31A022B01D9032367E0354B1B6866
:10266C0003F00073002BF0D17B681B6AB3F5803F3D
:10267C0008D1304B5B6823F400327B689B682D4992
:10268C0013434B602B4B5B6823F474127B68196A01
:10269C007B685B6A0B43274913434B60274B012232
:1026AC001A60FFF7F3FA386108E0FFF7EFFA024619
:1026BC003B69D31A022B01D9032337E01D4B1B684E
:1026CC0003F00073002BF0D02FE01C4B00221A609B
:1026DC00FFF7DCFA386108E0FFF7D8FA02463B69ED
:1026EC00D31A022B01D9032320E0124B1B6803F0F1
:1026FC000073002BF0D118E07B68DB69012B01D152
:10270C00012313E00B4B5B68FB60FB6803F4803226
:10271C007B681B6A9A4206D1FB6803F470127B68D3
:10272C005B6A9A4201D0012300E000231846183757
:10273C00BD4680BD00100240007000406000424267
:10274C0080B584B000AF786039607B68002B01D114
:10275C000123D0E06A4B1B6803F007033A689A42E6
:10276C0010D9674B1B6823F0070265493B6813437C
:10277C000B60634B1B6803F007033A689A4201D065
:10278C000123B8E07B681B6803F00203002B20D008
:10279C007B681B6803F00403002B05D0594B5B6866
:1027AC00584A43F4E06353607B681B6803F00803EA
:1027BC00002B05D0534B5B68524A43F46053536073
:1027CC00504B5B6823F0F0027B689B684D491343C8
:1027DC004B607B681B6803F00103002B40D07B68C7
:1027EC005B68012B07D1474B1B6803F40033002BAC
:1027FC0015D101237FE07B685B68022B07D1414B2D
:10280C001B6803F00073002B09D1012373E03D4BCF
:10281C001B6803F00203002B01D101236BE0394B41
:10282C005B6823F003027B685B68364913434B609B
:10283C00FFF72CFAF8600AE0FFF728FA0246FB686B
:10284C00D31A41F28832934201D9032353E02D4B22
:10285C005B6803F00C027B685B689B009A42EBD1CF
:10286C00274B1B6803F007033A689A4210D2244B9B
:10287C001B6823F0070222493B6813430B60204B73
:10288C001B6803F007033A689A4201D0012332E037
:10289C007B681B6803F00403002B08D0194B5B68A2
:1028AC0023F4E0627B68DB68164913434B607B685A
:1028BC001B6803F00803002B09D0124B5B6823F450
:1028CC0060527B681B69DB000E4913434B6000F0C0
:1028DC0021F802460B4B5B681B0903F00F030A49F6
:1028EC00CB5C22FA03F3094A1360094B1B681846A8
:1028FC00FFF78AF9002318461037BD4680BD00BF8C
:10290C0000200240001002402C3200086000002021
:10291C006400002080B487B000AF0023FB6000236C
:10292C00BB6000237B6100237B6000233B611E4B5B
:10293C005B68FB60FB6803F00C03042B02D0082BD4
:10294C0003D027E0194B3B6127E0FB689B0C03F09D
:10295C000F03174AD35C7B60FB6803F48033002BB6
:10296C0010D0114B5B685B0C03F00103114AD35C74
:10297C00BB607B680D4A02FB03F2BB68B2FBF3F34E
:10298C007B6104E07B680C4A02FB03F37B617B698F
:10299C003B6102E0054B3B6100BF3B6918461C37AD
:1029AC00BD4680BC704700BF0010024000127A0088
:1029BC003C3200084C32000800093D0080B485B060
:1029CC0000AF78600A4B1B680A4AA2FB03235B0A20
:1029DC007A6802FB03F3FB6000BFFB685A1EFA60C7
:1029EC00002BF9D100BF00BF1437BD4680BC704727
:1029FC0060000020D34D621080B582B000AF7860CB
:102A0C007B68002B01D1012341E07B6893F83D30BA
:102A1C00DBB2002B06D17B68002283F83C2078685F
:102A2C00FEF75AFF7B68022283F83D207B681A6808
:102A3C007B6804331946104600F056FA7B68012275
:102A4C0083F846207B68012283F83E207B680122B4
:102A5C0083F83F207B68012283F840207B680122A9
:102A6C0083F841207B68012283F842207B68012295
:102A7C0083F843207B68012283F844207B68012281
:102A8C0083F845207B68012283F83D2000231846FB
:102A9C000837BD4680BD000080B485B000AF7860BB
:102AAC007B6893F83D30DBB2012B01D0012335E07C
:102ABC007B68022283F83D207B681B68DA687B68A0
:102ACC001B6842F00102DA607B681B68164A93426D
:102ADC0009D07B681B68B3F1804F04D07B681B68FE
:102AEC00124A934211D17B681B689B6803F0070361
:102AFC00FB60FB68062B10D07B681B681A687B6830
:102B0C001B6842F001021A6007E07B681B681A68B8
:102B1C007B681B6842F001021A60002318461437C8
:102B2C00BD4680BC704700BF002C01400004004033
:102B3C0080B584B000AF78607B681B68DB68FB6095
:102B4C007B681B681B69BB60BB6803F00203002B2E
:102B5C0020D0FB6803F00203002B1BD07B681B68A2
:102B6C006FF002021A617B6801221A777B681B687E
:102B7C009B6903F00303002B03D0786800F098F9ED
:102B8C0005E0786800F08BF9786800F09AF97B68BA
:102B9C0000221A77BB6803F00403002B20D0FB68DB
:102BAC0003F00403002B1BD07B681B686FF004023E
:102BBC001A617B6802221A777B681B689B6903F495
:102BCC004073002B03D0786800F072F905E0786848
:102BDC0000F065F9786800F074F97B6800221A77C8
:102BEC00BB6803F00803002B20D0FB6803F008033C
:102BFC00002B1BD07B681B686FF008021A617B6886
:102C0C0004221A777B681B68DB6903F00303002B33
:102C1C0003D0786800F04CF905E0786800F03FF9D3
:102C2C00786800F04EF97B6800221A77BB6803F0D5
:102C3C001003002B20D0FB6803F01003002B1BD0DB
:102C4C007B681B686FF010021A617B6808221A7788
:102C5C007B681B68DB6903F44073002B03D0786836
:102C6C0000F026F905E0786800F019F9786800F0B2
:102C7C0028F97B6800221A77BB6803F00103002B4C
:102C8C000CD0FB6803F00103002B07D07B681B689A
:102C9C006FF001021A617868FEF770FCBB6803F0F4
:102CAC008003002B0CD0FB6803F08003002B07D0B3
:102CBC007B681B686FF080021A61786800F06FFA0D
:102CCC00BB6803F04003002B0CD0FB6803F04003FF
:102CDC00002B07D07B681B686FF040021A61786884
:102CEC0000F0F8F8BB6803F02003002B0CD0FB6855
:102CFC0003F02003002B07D07B681B686FF02002C9
:102D0C001A61786800F042FA00BF1037BD4680BDEA
:102D1C0080B584B000AF786039600023FB737B68AA
:102D2C0093F83C30012B01D10223B4E07B680122E3
:102D3C0083F83C207B68022283F83D207B681B686B
:102D4C009B68BB60BB6823F07703BB60BB6823F454
:102D5C007F43BB607B681B68BA689A603B681B68E2
:102D6C00B3F5005F3ED0B3F5005F00F28780B3F59A
:102D7C00805F00F08680B3F5805F7FD8702B1AD00F
:102D8C00702B7BD8602B50D0602B77D8502B3CD03D
:102D9C00502B73D8402B58D0402B6FD8302B64D08D
:102DAC00302B6BD8202B60D0202B67D8002B5CD01D
:102DBC00102B5AD062E07B6818683B6899683B68B6
:102DCC005A683B68DB6800F06AF97B681B689B6893
:102DDC00BB60BB6843F07703BB607B681B68BA6859
:102DEC009A604FE07B6818683B6899683B685A6842
:102DFC003B68DB6800F053F97B681B689A687B685A
:102E0C001B6842F480429A603CE07B6818683B681F
:102E1C0059683B68DB681A4600F0CAF87B681B6887
:102E2C005021184600F021F92CE07B6818683B68AB
:102E3C0059683B68DB681A4600F0E8F87B681B6849
:102E4C006021184600F011F91CE07B6818683B689B
:102E5C0059683B68DB681A4600F0AAF87B681B6867
:102E6C004021184600F001F90CE07B681A683B68B9
:102E7C001B681946104600F0F8F803E00123FB73B9
:102E8C0000E000BF7B68012283F83D207B680022B4
:102E9C0083F83C20FB7B18461037BD4680BD80B4C0
:102EAC0083B000AF786000BF0C37BD4680BC704764
:102EBC0080B483B000AF786000BF0C37BD4680BCD7
:102ECC00704780B483B000AF786000BF0C37BD464C
:102EDC0080BC704780B483B000AF786000BF0C3703
:102EEC00BD4680BC7047000080B485B000AF7860F0
:102EFC0039607B681B68FB607B682B4A934207D068
:102F0C007B68B3F1804F03D07B68284A934208D189
:102F1C00FB6823F07003FB603B685B68FA68134343
:102F2C00FB607B68204A934207D07B68B3F1804FEB
:102F3C0003D07B681D4A934208D1FB6823F440738D
:102F4C00FB603B68DB68FA681343FB60FB6823F0AB
:102F5C0080023B685B691343FB607B68FA681A600C
:102F6C003B689A687B68DA623B681A687B689A628D
:102F7C007B680D4A934203D13B681A697B681A63DC
:102F8C007B6801225A617B681B6903F00103002BEB
:102F9C0005D07B681B6923F001027B681A6100BFB6
:102FAC001437BD4680BC7047002C01400004004023
:102FBC0080B487B000AFF860B9607A60FB681B6AB8
:102FCC007B61FB681B6A23F00102FB681A62FB68D9
:102FDC009B693B613B6923F0F0033B617B681B0100
:102FEC003A6913433B617B6923F00A037B617A697D
:102FFC00BB6813437B61FB683A699A61FB687A6929
:10300C001A6200BF1C37BD4680BC704780B487B0C5
:10301C0000AFF860B9607A60FB681B6A7B61FB6883
:10302C001B6A23F01002FB681A62FB689B693B6108
:10303C003B6923F470433B617B681B033A69134380
:10304C003B617B6923F0A0037B61BB681B017A6940
:10305C0013437B61FB683A699A61FB687A691A626F
:10306C0000BF1C37BD4680BC704780B485B000AF34
:10307C00786039607B689B68FB60FB6823F07003A9
:10308C00FB603A68FB68134343F00703FB607B6803
:10309C00FA689A6000BF1437BD4680BC704780B494
:1030AC0087B000AFF860B9607A603B60FB689B68E2
:1030BC007B617B6923F47F437B613B681A027B68ED
:1030CC001A43BB6813437A6913437B61FB687A69C3
:1030DC009A6000BF1C37BD4680BC704780B485B079
:1030EC0000AF786039607B6893F83C30012B01D1DC
:1030FC00022341E07B68012283F83C207B6802229A
:10310C0083F83D207B681B685B68FB607B681B68F1
:10311C009B68BB60FB6823F07003FB603B681B681B
:10312C00FA681343FB607B681B68FA685A607B681B
:10313C001B68144A934209D07B681B68B3F1804F1B
:10314C0004D07B681B68104A93420CD1BB6823F0F7
:10315C008003BB603B685B68BA681343BB607B68E9
:10316C001B68BA689A607B68012283F83D207B68F3
:10317C00002283F83C20002318461437BD4680BC3F
:10318C00704700BF002C01400004004080B483B0A5
:10319C0000AF786000BF0C37BD4680BC704780B470
:1031AC0083B000AF786000BF0C37BD4680BC704761
:1031BC0070B500260C4D0D4C641BA410A64209D111
:1031CC0000F022F800260A4D0A4C641BA410A642FB
:1031DC0005D170BD55F8043B98470136EEE755F81C
:1031EC00043B98470136F2E7503200085032000891
:1031FC00503200085432000803460244934200D176
:10320C00704703F8011BF9E7F8B500BFF8BC08BC20
:10321C009E467047F8B500BFF8BC08BC9E46704788
:10322C00000000000000000001020304060708096A
:10323C0002030405060708090A0B0C0D0E0F1010EB
:04324C00010200007B
:043250003101000840
:043254000D01000860
:103258000100000001000000010000000100000062
:103268000100000001000000010000000100000052
:103278000100000001000000010000000100000042
:10328800002000000040000000800000F401000061
:10329800F4010000F40100000D000000010000002E
:1032A8000500000002000000030000000A00000002
:0C32B80000127A0010000000010000006D
:0400000508001B9D37
:00000001FF
